:020000040000FA
:020000000528D1
:040002000034003492
:06000A008316031307102A
:10001000871007118801831603178801890183124D
:10002000031307108710071188010330A9005B3004
:10003000A0000930A1000130A20076200A30A600FD
:100040000030A7000230A800612024282208A50063
:100050002108A4002008A300A30B2C28A40B2A2805
:10006000A50B282808000330AA000800AA030800EE
:1000700082073F3406345B344F3466346D347D344C
:1000800007347F346F347D34820700340134023406
:1000900004342608382088002A08442087003620A7
:1000A00008002708382088002A08442087003620C6
:1000B00008002808382088002A08442087003620B5
:1000C000080026202A08033C031970282A08023C4D
:1000D000031972282A08013C0319742833200800E8
:1000E00059200800512008004920080033202A0820
:1000F000442087000130A60088000730AB00143090
:10010000A5001730A400D830A300A30B8528A40BAA
:100110008328A50B81281430A5001730A400D830FF
:10012000A300A30B9128A40B8F28A50B8D280310E7
:10013000A60DAB0326088800AB08031D7F287F307F
:1001400088006430A5001930A4008430A300A30BFC
:10015000A728A40BA528A50BA3286430A500193057
:10016000A4008430A300A30BB328A40BB128A50BD3
:10017000AF2888016430A5001930A4008430A300A2
:10018000A30BC028A40BBE28A50BBC286430A50077
:100190001930A4008430A300A30BCC28A40BCA28D8
:0E01A000A50BC8283620031D77283320080041
:02400E00F12F90
:00000001FF
